{
  "contractName": "DistributorAccount",
  "abi": [
    {
      "inputs": [],
      "payable": false,
      "stateMutability": "nonpayable",
      "type": "constructor"
    },
    {
      "payable": true,
      "stateMutability": "payable",
      "type": "fallback"
    },
    {
      "anonymous": false,
      "inputs": [
        {
          "indexed": false,
          "name": "index_from",
          "type": "address"
        },
        {
          "indexed": false,
          "name": "amount",
          "type": "uint256"
        }
      ],
      "name": "LogDonate",
      "type": "event"
    },
    {
      "constant": false,
      "inputs": [
        {
          "name": "distributorImformation",
          "type": "string"
        }
      ],
      "name": "distributorImformation_publish",
      "outputs": [],
      "payable": false,
      "stateMutability": "nonpayable",
      "type": "function"
    },
    {
      "constant": true,
      "inputs": [
        {
          "name": "imformationId",
          "type": "uint256"
        }
      ],
      "name": "getDistributorImformation",
      "outputs": [
        {
          "name": "distributorImformation",
          "type": "string"
        },
        {
          "name": "timestamp",
          "type": "uint256"
        }
      ],
      "payable": false,
      "stateMutability": "view",
      "type": "function"
    },
    {
      "constant": true,
      "inputs": [],
      "name": "getLastImformation",
      "outputs": [
        {
          "name": "distributorImformation",
          "type": "string"
        },
        {
          "name": "timestamp",
          "type": "uint256"
        },
        {
          "name": "imformationId",
          "type": "uint256"
        }
      ],
      "payable": false,
      "stateMutability": "view",
      "type": "function"
    },
    {
      "constant": true,
      "inputs": [],
      "name": "getDistributorAddress",
      "outputs": [
        {
          "name": "distributorAddress",
          "type": "address"
        }
      ],
      "payable": false,
      "stateMutability": "view",
      "type": "function"
    },
    {
      "constant": true,
      "inputs": [],
      "name": "getNumberofImformation",
      "outputs": [
        {
          "name": "imformationNumbers",
          "type": "uint256"
        }
      ],
      "payable": false,
      "stateMutability": "view",
      "type": "function"
    },
    {
      "constant": false,
      "inputs": [],
      "name": "adminRetriveDonation",
      "outputs": [],
      "payable": false,
      "stateMutability": "nonpayable",
      "type": "function"
    },
    {
      "constant": false,
      "inputs": [],
      "name": "adminDeleteRegistry",
      "outputs": [],
      "payable": false,
      "stateMutability": "nonpayable",
      "type": "function"
    }
  ],
  "bytecode": "0x608060405234801561001057600080fd5b50600060018190555033600260006101000a81548173ffffffffffffffffffffffffffffffffffffffff021916908373ffffffffffffffffffffffffffffffffffffffff16021790555061083e806100696000396000f300608060405260043610610083576000357c0100000000000000000000000000000000000000000000000000000000900463ffffffff16806308f9fe2c146100f05780633af41dc21461019d578063572ab45e146101b45780637f93d68914610252578063af1ea4ff14610269578063b8a3ead914610294578063baf0b562146102fd575b7fc651c526da5277c9cbde59963e1c4e6324da2fae97ff1e31a326a0475664a3833334604051808373ffffffffffffffffffffffffffffffffffffffff1673ffffffffffffffffffffffffffffffffffffffff1681526020018281526020019250505060405180910390a1005b3480156100fc57600080fd5b5061011b60048036038101908080359060200190929190505050610354565b6040518080602001838152602001828103825284818151815260200191508051906020019080838360005b83811015610161578082015181840152602081019050610146565b50505050905090810190601f16801561018e5780820380516001836020036101000a031916815260200191505b50935050505060405180910390f35b3480156101a957600080fd5b506101b2610425565b005b3480156101c057600080fd5b506101c96104bc565b6040518080602001848152602001838152602001828103825285818151815260200191508051906020019080838360005b838110156102155780820151818401526020810190506101fa565b50505050905090810190601f1680156102425780820380516001836020036101000a031916815260200191505b5094505050505060405180910390f35b34801561025e57600080fd5b5061026761059b565b005b34801561027557600080fd5b5061027e61066f565b6040518082815260200191505060405180910390f35b3480156102a057600080fd5b506102fb600480360381019080803590602001908201803590602001908080601f0160208091040260200160405190810160405280939291908181526020018383808284378201915050505050509192919290505050610679565b005b34801561030957600080fd5b50610312610743565b604051808273ffffffffffffffffffffffffffffffffffffffff1673ffffffffffffffffffffffffffffffffffffffff16815260200191505060405180910390f35b606060008060008481526020019081526020016000206001018054600181600116156101000203166002900480601f0160208091040260200160405190810160405280929190818152602001828054600181600116156101000203166002900480156104015780601f106103d657610100808354040283529160200191610401565b820191906000526020600020905b8154815290600101906020018083116103e457829003601f168201915b50505050509150600080848152602001908152602001600020600001549050915091565b600260009054906101000a900473ffffffffffffffffffffffffffffffffffffffff1673ffffffffffffffffffffffffffffffffffffffff163373ffffffffffffffffffffffffffffffffffffffff1614151561048157600080fd5b600260009054906101000a900473ffffffffffffffffffffffffffffffffffffffff1673ffffffffffffffffffffffffffffffffffffffff16ff5b6060600080600080600180540381526020019081526020016000206001018054600181600116156101000203166002900480601f01602080910402602001604051908101604052809291908181526020018280546001816001161561010002031660029004801561056e5780601f106105435761010080835404028352916020019161056e565b820191906000526020600020905b81548152906001019060200180831161055157829003601f168201915b50505050509250600080600180540381526020019081526020016000206000015491506001549050909192565b600260009054906101000a900473ffffffffffffffffffffffffffffffffffffffff1673ffffffffffffffffffffffffffffffffffffffff163373ffffffffffffffffffffffffffffffffffffffff161415156105f757600080fd5b600260009054906101000a900473ffffffffffffffffffffffffffffffffffffffff1673ffffffffffffffffffffffffffffffffffffffff166108fc3073ffffffffffffffffffffffffffffffffffffffff16319081150290604051600060405180830381858888f19350505050151561066d57fe5b565b6000600154905090565b600260009054906101000a900473ffffffffffffffffffffffffffffffffffffffff1673ffffffffffffffffffffffffffffffffffffffff163373ffffffffffffffffffffffffffffffffffffffff161415156106d557600080fd5b60c88151111515156106e657600080fd5b42600080600154815260200190815260200160002060000181905550806000806001548152602001908152602001600020600101908051906020019061072d92919061076d565b5060016000815480929190600101919050555050565b6000600260009054906101000a900473ffffffffffffffffffffffffffffffffffffffff16905090565b828054600181600116156101000203166002900490600052602060002090601f016020900481019282601f106107ae57805160ff19168380011785556107dc565b828001600101855582156107dc579182015b828111156107db5782518255916020019190600101906107c0565b5b5090506107e991906107ed565b5090565b61080f91905b8082111561080b5760008160009055506001016107f3565b5090565b905600a165627a7a72305820246436fc1a9c82a1e659b8808f2c7d73e2d2f077d5f9076704948bb3aa92b2b40029",
  "source": "pragma solidity ^0.4.18;\n\ncontract DistributorAccount{\n    \n    struct Distributor{\n        uint timestamp;\n        string distributorImformation;\n    }\n    \n    mapping(uint => Distributor) _distributor;\n    \n    uint _numberofImformation;\n    \n    address _distributorAddress;\n    \n    modifier OnlyAdmin{\n    require(msg.sender==_distributorAddress);\n    _;\n    }\n    \n    function DistributorAccount(){\n        \n         _numberofImformation = 0;\n         _distributorAddress = msg.sender;\n         \n    }\n    \n    function distributorImformation_publish(string distributorImformation) OnlyAdmin{\n        require(bytes(distributorImformation).length <=200);\n        _distributor[_numberofImformation].timestamp = now;\n        _distributor[_numberofImformation].distributorImformation = distributorImformation;\n        _numberofImformation++;\n    }\n    \n    function getDistributorImformation(uint imformationId) constant returns(string distributorImformation, uint timestamp){\n        distributorImformation = _distributor[imformationId].distributorImformation;\n        timestamp = _distributor[imformationId].timestamp;\n    }\n    \n    function getLastImformation() constant returns(string distributorImformation,uint timestamp ,uint imformationId){\n        distributorImformation = _distributor[_numberofImformation-1].distributorImformation;\n        timestamp = _distributor[_numberofImformation-1].timestamp;\n        imformationId = _numberofImformation;\n    }\n    \n    function getDistributorAddress() constant returns(address distributorAddress){\n        return _distributorAddress;\n    }\n    \n    function getNumberofImformation() constant returns(uint imformationNumbers){\n        return _numberofImformation;\n    }\n    \n     function adminRetriveDonation() OnlyAdmin{\n        assert(_distributorAddress.send(this.balance));\n        \n    }\n    \n    function adminDeleteRegistry()  OnlyAdmin{\n        selfdestruct(_distributorAddress);\n    }\n    \n    event LogDonate(address index_from, uint256 amount );\n    \n    function() payable{\n        LogDonate(msg.sender, msg.value);\n    }\n}",
  "sourcePath": "/home/turbo/Documents/supplychain/contracts/DistributorAccount.sol",
  "compiler": {
    "name": "solc",
    "version": "0.4.24+commit.e67f0147.Emscripten.clang"
  },
  "schemaVersion": "2.0.1",
  "updatedAt": "2018-08-14T08:16:29.270Z"
}