{
  "contractName": "ManufactureAccount",
  "abi": [
    {
      "inputs": [],
      "payable": false,
      "stateMutability": "nonpayable",
      "type": "constructor"
    },
    {
      "payable": true,
      "stateMutability": "payable",
      "type": "fallback"
    },
    {
      "anonymous": false,
      "inputs": [
        {
          "indexed": false,
          "name": "index_from",
          "type": "address"
        },
        {
          "indexed": false,
          "name": "amount",
          "type": "uint256"
        }
      ],
      "name": "LogDonate",
      "type": "event"
    },
    {
      "constant": false,
      "inputs": [
        {
          "name": "manufactureImformation",
          "type": "string"
        }
      ],
      "name": "manufactureImformation_publish",
      "outputs": [],
      "payable": false,
      "stateMutability": "nonpayable",
      "type": "function"
    },
    {
      "constant": true,
      "inputs": [
        {
          "name": "imformationId",
          "type": "uint256"
        }
      ],
      "name": "getManufactureImformation",
      "outputs": [
        {
          "name": "manufactureImformation",
          "type": "string"
        },
        {
          "name": "timestamp",
          "type": "uint256"
        }
      ],
      "payable": false,
      "stateMutability": "view",
      "type": "function"
    },
    {
      "constant": true,
      "inputs": [],
      "name": "getLastImformation",
      "outputs": [
        {
          "name": "manufactureImformation",
          "type": "string"
        },
        {
          "name": "timestamp",
          "type": "uint256"
        },
        {
          "name": "imformationId",
          "type": "uint256"
        }
      ],
      "payable": false,
      "stateMutability": "view",
      "type": "function"
    },
    {
      "constant": true,
      "inputs": [],
      "name": "getManufactureAddress",
      "outputs": [
        {
          "name": "manufactureAddress",
          "type": "address"
        }
      ],
      "payable": false,
      "stateMutability": "view",
      "type": "function"
    },
    {
      "constant": true,
      "inputs": [],
      "name": "getNumberofImformation",
      "outputs": [
        {
          "name": "imformationNumbers",
          "type": "uint256"
        }
      ],
      "payable": false,
      "stateMutability": "view",
      "type": "function"
    },
    {
      "constant": false,
      "inputs": [],
      "name": "adminRetriveDonation",
      "outputs": [],
      "payable": false,
      "stateMutability": "nonpayable",
      "type": "function"
    },
    {
      "constant": false,
      "inputs": [],
      "name": "adminDeleteRegistry",
      "outputs": [],
      "payable": false,
      "stateMutability": "nonpayable",
      "type": "function"
    }
  ],
  "bytecode": "0x608060405234801561001057600080fd5b50600060018190555033600260006101000a81548173ffffffffffffffffffffffffffffffffffffffff021916908373ffffffffffffffffffffffffffffffffffffffff16021790555061083e806100696000396000f300608060405260043610610083576000357c0100000000000000000000000000000000000000000000000000000000900463ffffffff168063206c52dc146100f05780633af41dc214610147578063572ab45e1461015e5780637f93d689146101fc578063844054c114610213578063888f90b9146102c0578063af1ea4ff14610329575b7fc651c526da5277c9cbde59963e1c4e6324da2fae97ff1e31a326a0475664a3833334604051808373ffffffffffffffffffffffffffffffffffffffff1673ffffffffffffffffffffffffffffffffffffffff1681526020018281526020019250505060405180910390a1005b3480156100fc57600080fd5b50610105610354565b604051808273ffffffffffffffffffffffffffffffffffffffff1673ffffffffffffffffffffffffffffffffffffffff16815260200191505060405180910390f35b34801561015357600080fd5b5061015c61037e565b005b34801561016a57600080fd5b50610173610415565b6040518080602001848152602001838152602001828103825285818151815260200191508051906020019080838360005b838110156101bf5780820151818401526020810190506101a4565b50505050905090810190601f1680156101ec5780820380516001836020036101000a031916815260200191505b5094505050505060405180910390f35b34801561020857600080fd5b506102116104f4565b005b34801561021f57600080fd5b5061023e600480360381019080803590602001909291905050506105c8565b6040518080602001838152602001828103825284818151815260200191508051906020019080838360005b83811015610284578082015181840152602081019050610269565b50505050905090810190601f1680156102b15780820380516001836020036101000a031916815260200191505b50935050505060405180910390f35b3480156102cc57600080fd5b50610327600480360381019080803590602001908201803590602001908080601f0160208091040260200160405190810160405280939291908181526020018383808284378201915050505050509192919290505050610699565b005b34801561033557600080fd5b5061033e610763565b6040518082815260200191505060405180910390f35b6000600260009054906101000a900473ffffffffffffffffffffffffffffffffffffffff16905090565b600260009054906101000a900473ffffffffffffffffffffffffffffffffffffffff1673ffffffffffffffffffffffffffffffffffffffff163373ffffffffffffffffffffffffffffffffffffffff161415156103da57600080fd5b600260009054906101000a900473ffffffffffffffffffffffffffffffffffffffff1673ffffffffffffffffffffffffffffffffffffffff16ff5b6060600080600080600180540381526020019081526020016000206001018054600181600116156101000203166002900480601f0160208091040260200160405190810160405280929190818152602001828054600181600116156101000203166002900480156104c75780601f1061049c576101008083540402835291602001916104c7565b820191906000526020600020905b8154815290600101906020018083116104aa57829003601f168201915b50505050509250600080600180540381526020019081526020016000206000015491506001549050909192565b600260009054906101000a900473ffffffffffffffffffffffffffffffffffffffff1673ffffffffffffffffffffffffffffffffffffffff163373ffffffffffffffffffffffffffffffffffffffff1614151561055057600080fd5b600260009054906101000a900473ffffffffffffffffffffffffffffffffffffffff1673ffffffffffffffffffffffffffffffffffffffff166108fc3073ffffffffffffffffffffffffffffffffffffffff16319081150290604051600060405180830381858888f1935050505015156105c657fe5b565b606060008060008481526020019081526020016000206001018054600181600116156101000203166002900480601f0160208091040260200160405190810160405280929190818152602001828054600181600116156101000203166002900480156106755780601f1061064a57610100808354040283529160200191610675565b820191906000526020600020905b81548152906001019060200180831161065857829003601f168201915b50505050509150600080848152602001908152602001600020600001549050915091565b600260009054906101000a900473ffffffffffffffffffffffffffffffffffffffff1673ffffffffffffffffffffffffffffffffffffffff163373ffffffffffffffffffffffffffffffffffffffff161415156106f557600080fd5b60c881511115151561070657600080fd5b42600080600154815260200190815260200160002060000181905550806000806001548152602001908152602001600020600101908051906020019061074d92919061076d565b5060016000815480929190600101919050555050565b6000600154905090565b828054600181600116156101000203166002900490600052602060002090601f016020900481019282601f106107ae57805160ff19168380011785556107dc565b828001600101855582156107dc579182015b828111156107db5782518255916020019190600101906107c0565b5b5090506107e991906107ed565b5090565b61080f91905b8082111561080b5760008160009055506001016107f3565b5090565b905600a165627a7a723058206f6d873ba776e5f1feff3529362b96b31bedf467824ec6ab626d019bfbf1e2640029",
  "source": "pragma solidity ^0.4.18;\n\ncontract ManufactureAccount{\n    \n    struct Manufacture{\n        uint timestamp;\n        string manufactureImformation;\n    }\n    \n    mapping(uint => Manufacture) _manufacture;\n    \n    uint _numberofImformation;\n    \n    address _manufactureAddress;\n    \n    modifier OnlyAdmin{\n    require(msg.sender==_manufactureAddress);\n    _;\n    }\n    \n    function ManufactureAccount(){\n        \n         _numberofImformation = 0;\n         _manufactureAddress = msg.sender;\n         \n    }\n    \n    function manufactureImformation_publish(string manufactureImformation) OnlyAdmin{\n        require(bytes(manufactureImformation).length <=200);\n        _manufacture[_numberofImformation].timestamp = now;\n        _manufacture[_numberofImformation].manufactureImformation = manufactureImformation;\n        _numberofImformation++;\n    }\n    \n    function getManufactureImformation(uint imformationId) constant returns(string manufactureImformation, uint timestamp){\n        manufactureImformation = _manufacture[imformationId].manufactureImformation;\n        timestamp = _manufacture[imformationId].timestamp;\n    }\n    \n    function getLastImformation() constant returns(string manufactureImformation,uint timestamp ,uint imformationId){\n        manufactureImformation = _manufacture[_numberofImformation-1].manufactureImformation;\n        timestamp = _manufacture[_numberofImformation-1].timestamp;\n        imformationId = _numberofImformation;\n    }\n    \n    function getManufactureAddress() constant returns(address manufactureAddress){\n        return _manufactureAddress;\n    }\n    \n    function getNumberofImformation() constant returns(uint imformationNumbers){\n        return _numberofImformation;\n    }\n    \n     function adminRetriveDonation() OnlyAdmin{\n        assert(_manufactureAddress.send(this.balance));\n        \n    }\n    \n    function adminDeleteRegistry()  OnlyAdmin{\n        selfdestruct(_manufactureAddress);\n    }\n    \n    event LogDonate(address index_from, uint256 amount);\n    \n    function() payable{\n        LogDonate(msg.sender, msg.value);\n    }\n    \n}",
  "sourcePath": "/home/turbo/Documents/supplychain/contracts/ManufactureAccount.sol",
  "compiler": {
    "name": "solc",
    "version": "0.4.24+commit.e67f0147.Emscripten.clang"
  },
  "schemaVersion": "2.0.1",
  "updatedAt": "2018-08-14T08:16:29.273Z"
}