{
  "contractName": "SupplychainRegister",
  "abi": [
    {
      "payable": true,
      "stateMutability": "payable",
      "type": "fallback"
    },
    {
      "anonymous": false,
      "inputs": [
        {
          "indexed": false,
          "name": "index_from",
          "type": "address"
        },
        {
          "indexed": false,
          "name": "amount",
          "type": "uint256"
        }
      ],
      "name": "LogDonate",
      "type": "event"
    },
    {
      "constant": false,
      "inputs": [],
      "name": "supplychainRegistry",
      "outputs": [],
      "payable": false,
      "stateMutability": "nonpayable",
      "type": "function"
    },
    {
      "constant": false,
      "inputs": [
        {
          "name": "name",
          "type": "string"
        },
        {
          "name": "accountAddress",
          "type": "address"
        }
      ],
      "name": "register",
      "outputs": [],
      "payable": false,
      "stateMutability": "nonpayable",
      "type": "function"
    },
    {
      "constant": true,
      "inputs": [],
      "name": "getNumberofAccounts",
      "outputs": [
        {
          "name": "numberofAccounts",
          "type": "uint256"
        }
      ],
      "payable": false,
      "stateMutability": "view",
      "type": "function"
    },
    {
      "constant": true,
      "inputs": [
        {
          "name": "name",
          "type": "string"
        }
      ],
      "name": "getAddressofName",
      "outputs": [
        {
          "name": "addr",
          "type": "address"
        }
      ],
      "payable": false,
      "stateMutability": "view",
      "type": "function"
    },
    {
      "constant": true,
      "inputs": [
        {
          "name": "addr",
          "type": "address"
        }
      ],
      "name": "getNameofAddress",
      "outputs": [
        {
          "name": "name",
          "type": "string"
        }
      ],
      "payable": false,
      "stateMutability": "view",
      "type": "function"
    },
    {
      "constant": true,
      "inputs": [
        {
          "name": "id",
          "type": "uint256"
        }
      ],
      "name": "getAddressofId",
      "outputs": [
        {
          "name": "addr",
          "type": "address"
        }
      ],
      "payable": false,
      "stateMutability": "view",
      "type": "function"
    },
    {
      "constant": false,
      "inputs": [],
      "name": "adminRetriveDonation",
      "outputs": [],
      "payable": false,
      "stateMutability": "nonpayable",
      "type": "function"
    },
    {
      "constant": false,
      "inputs": [],
      "name": "adminDeleteRegistry",
      "outputs": [],
      "payable": false,
      "stateMutability": "nonpayable",
      "type": "function"
    }
  ],
  "bytecode": "0x608060405234801561001057600080fd5b50610aa8806100206000396000f30060806040526004361061008e576000357c0100000000000000000000000000000000000000000000000000000000900463ffffffff1680631e59c529146100fb5780633943bc23146101845780633af41dc21461022d578063454bad03146102445780634f181d761461026f578063777cab2d146102dc5780637f93d689146102f3578063f7a2bf531461030a575b7fc651c526da5277c9cbde59963e1c4e6324da2fae97ff1e31a326a0475664a3833334604051808373ffffffffffffffffffffffffffffffffffffffff1673ffffffffffffffffffffffffffffffffffffffff1681526020018281526020019250505060405180910390a1005b34801561010757600080fd5b50610182600480360381019080803590602001908201803590602001908080601f0160208091040260200160405190810160405280939291908181526020018383808284378201915050505050509192919290803573ffffffffffffffffffffffffffffffffffffffff1690602001909291905050506103c6565b005b34801561019057600080fd5b506101eb600480360381019080803590602001908201803590602001908080601f0160208091040260200160405190810160405280939291908181526020018383808284378201915050505050509192919290505050610665565b604051808273ffffffffffffffffffffffffffffffffffffffff1673ffffffffffffffffffffffffffffffffffffffff16815260200191505060405180910390f35b34801561023957600080fd5b506102426106fa565b005b34801561025057600080fd5b50610259610791565b6040518082815260200191505060405180910390f35b34801561027b57600080fd5b5061029a6004803603810190808035906020019092919050505061079b565b604051808273ffffffffffffffffffffffffffffffffffffffff1673ffffffffffffffffffffffffffffffffffffffff16815260200191505060405180910390f35b3480156102e857600080fd5b506102f16107d8565b005b3480156102ff57600080fd5b50610308610823565b005b34801561031657600080fd5b5061034b600480360381019080803573ffffffffffffffffffffffffffffffffffffffff1690602001909291905050506108f7565b6040518080602001828103825283818151815260200191508051906020019080838360005b8381101561038b578082015181840152602081019050610370565b50505050905090810190601f1680156103b85780820380516001836020036101000a031916815260200191505b509250505060405180910390f35b600073ffffffffffffffffffffffffffffffffffffffff166002836040518082805190602001908083835b60208310151561041657805182526020820191506020810190506020830392506103f1565b6001836020036101000a038019825116818451168082178552505050505050905001915050908152602001604051809103902060009054906101000a900473ffffffffffffffffffffffffffffffffffffffff1673ffffffffffffffffffffffffffffffffffffffff1614151561048c57600080fd5b60008060008373ffffffffffffffffffffffffffffffffffffffff1673ffffffffffffffffffffffffffffffffffffffff1681526020019081526020016000208054600181600116156101000203166002900490501415156104ed57600080fd5b60408251111515156104fe57600080fd5b806002836040518082805190602001908083835b6020831015156105375780518252602082019150602081019050602083039250610512565b6001836020036101000a038019825116818451168082178552505050505050905001915050908152602001604051809103902060006101000a81548173ffffffffffffffffffffffffffffffffffffffff021916908373ffffffffffffffffffffffffffffffffffffffff160217905550816000808373ffffffffffffffffffffffffffffffffffffffff1673ffffffffffffffffffffffffffffffffffffffff16815260200190815260200160002090805190602001906105fa9291906109d7565b508060016000600354815260200190815260200160002060006101000a81548173ffffffffffffffffffffffffffffffffffffffff021916908373ffffffffffffffffffffffffffffffffffffffff1602179055506003600081548092919060010191905055505050565b60006002826040518082805190602001908083835b60208310151561069f578051825260208201915060208101905060208303925061067a565b6001836020036101000a038019825116818451168082178552505050505050905001915050908152602001604051809103902060009054906101000a900473ffffffffffffffffffffffffffffffffffffffff169050919050565b600460009054906101000a900473ffffffffffffffffffffffffffffffffffffffff1673ffffffffffffffffffffffffffffffffffffffff163373ffffffffffffffffffffffffffffffffffffffff1614151561075657600080fd5b600460009054906101000a900473ffffffffffffffffffffffffffffffffffffffff1673ffffffffffffffffffffffffffffffffffffffff16ff5b6000600354905090565b60006001600083815260200190815260200160002060009054906101000a900473ffffffffffffffffffffffffffffffffffffffff169050919050565b33600460006101000a81548173ffffffffffffffffffffffffffffffffffffffff021916908373ffffffffffffffffffffffffffffffffffffffff1602179055506000600381905550565b600460009054906101000a900473ffffffffffffffffffffffffffffffffffffffff1673ffffffffffffffffffffffffffffffffffffffff163373ffffffffffffffffffffffffffffffffffffffff1614151561087f57600080fd5b600460009054906101000a900473ffffffffffffffffffffffffffffffffffffffff1673ffffffffffffffffffffffffffffffffffffffff166108fc3073ffffffffffffffffffffffffffffffffffffffff16319081150290604051600060405180830381858888f1935050505015156108f557fe5b565b60606000808373ffffffffffffffffffffffffffffffffffffffff1673ffffffffffffffffffffffffffffffffffffffff1681526020019081526020016000208054600181600116156101000203166002900480601f0160208091040260200160405190810160405280929190818152602001828054600181600116156101000203166002900480156109cb5780601f106109a0576101008083540402835291602001916109cb565b820191906000526020600020905b8154815290600101906020018083116109ae57829003601f168201915b50505050509050919050565b828054600181600116156101000203166002900490600052602060002090601f016020900481019282601f10610a1857805160ff1916838001178555610a46565b82800160010185558215610a46579182015b82811115610a45578251825591602001919060010190610a2a565b5b509050610a539190610a57565b5090565b610a7991905b80821115610a75576000816000905550600101610a5d565b5090565b905600a165627a7a723058204a18bd5d3184b968b05228b6e6e97390bea4fac81551709cecff32ca31e311050029",
  "source": "pragma solidity ^0.4.18;\n\ncontract SupplychainRegister{\n    \n    mapping(address => string) _addressToAccountName;\n    \n    mapping(uint => address)  _accountIdToAccountAddress;\n    \n    mapping(string => address) _accountNameToAccountAddress;\n    \n    uint _numberofAccounts;\n    \n    address _registryAdmin;\n    \n    modifier OnlyRegistryAdmin{\n        require(msg.sender==_registryAdmin);\n        _;\n    }\n    \n    function supplychainRegistry(){\n        _registryAdmin = msg.sender;\n        _numberofAccounts = 0;\n    }\n    \n    \n    function register(string name, address accountAddress){\n        require(_accountNameToAccountAddress[name] == address(0));\n        require(bytes(_addressToAccountName[accountAddress]).length == 0);\n        \n        require(bytes(name).length <= 64);\n        \n        _accountNameToAccountAddress[name] = accountAddress;\n        _addressToAccountName[accountAddress] = name;\n        _accountIdToAccountAddress[_numberofAccounts] = accountAddress;\n        \n        _numberofAccounts++;\n    }\n    \n    function getNumberofAccounts() constant returns (uint numberofAccounts){\n        numberofAccounts = _numberofAccounts; \n    }\n    \n    function getAddressofName(string name) constant returns (address addr){\n        addr = _accountNameToAccountAddress[name];\n    }\n    \n    function getNameofAddress(address addr) constant returns (string name){\n        name = _addressToAccountName[addr];\n    }\n    \n    function getAddressofId(uint id) constant returns (address addr){\n        addr = _accountIdToAccountAddress[id];\n    }\n    \n    function adminRetriveDonation() OnlyRegistryAdmin{\n        assert(_registryAdmin.send(this.balance));\n        \n    }\n    \n    function adminDeleteRegistry()  OnlyRegistryAdmin{\n        selfdestruct(_registryAdmin);\n    }\n    \n    event LogDonate(address index_from, uint256 amount );\n    \n    function() payable{\n        LogDonate(msg.sender, msg.value);\n    }\n}",
  "sourcePath": "/home/turbo/Documents/supplychain/contracts/SupplychainRegister.sol",
  "compiler": {
    "name": "solc",
    "version": "0.4.24+commit.e67f0147.Emscripten.clang"
  },
  "schemaVersion": "2.0.1",
  "updatedAt": "2018-08-14T08:16:32.156Z"
}